S00F000041746D656761322E7372656394
S11300000C942A000C9434000C9434000C943400A6
S11300100C9434000C9434000C9434000C9434008C
S11300200C9434000C9434000C9434000C9434007C
S11300300C9434000C9434000C9434000C9434006C
S11300400C9434000C9434000C9434000C9434005C
S11300500C94340011241FBECFE5D8E0DEBFCDBF21
S11300600E94A6000C94E5000C9400004130A1F518
S1130070813089F028F08230C9F0833011F108957D
S11300802AB381E090E002C0880F991F6A95E2F7D5
S1130090822B8ABB089527B381E090E002C0880FC9
S11300A0991F6A95E2F7822B87BB089524B381E0F8
S11300B090E002C0880F991F6A95E2F7822B84BBF7
S11300C0089521B381E090E002C0880F991F6A95DA
S11300D0E2F7822B81BB0895411137C0813091F042
S11300E028F08230D9F0833029F108952AB381E0D1
S11300F090E002C0880F991F6A95E2F780958223E9
S11301008ABB089527B381E090E002C0880F991F4D
S11301106A95E2F78095822387BB089524B381E032
S113012090E002C0880F991F6A95E2F780958223B8
S113013084BB089521B381E090E002C0880F991F29
S11301406A95E2F78095822381BB08950E94C800D6
S113015041E062E082E00E94360041E063E082E038
S11301600E94360080E090E00E94E00099278136EA
S1130170910521F08236910531F0F4CF95B384E0F6
S1130180892785BBEFCF95B388E0892785BBEACF64
S113019041E066E081E00E94360040E065E081E0F5
S11301A00E94360040E067E081E00E94360040E0B3
S11301B064E081E00E9436008DB180648DB90895B9
S11101C08FB9779BFECF8FB10895F894FFCFCF
S9030000FC
