S00F000041746D656761312E7372656395
S11300000C942A000C9434000C9434000C943400A6
S11300100C9434000C9434000C9434000C9434008C
S11300200C9434000C9434000C9434000C9434007C
S11300300C9434000C9434000C9434000C9434006C
S11300400C9434000C9434000C9434000C9434005C
S11300500C94340011241FBECFE5D8E0DEBFCDBF21
S11300600E9416010C9479010C9400004130A1F512
S1130070813089F028F08230C9F0833011F108957D
S11300802AB381E090E002C0880F991F6A95E2F7D5
S1130090822B8ABB089527B381E090E002C0880FC9
S11300A0991F6A95E2F7822B87BB089524B381E0F8
S11300B090E002C0880F991F6A95E2F7822B84BBF7
S11300C0089521B381E090E002C0880F991F6A95DA
S11300D0E2F7822B81BB0895411137C0813091F042
S11300E028F08230D9F0833029F108952AB381E0D1
S11300F090E002C0880F991F6A95E2F780958223E9
S11301008ABB089527B381E090E002C0880F991F4D
S11301106A95E2F78095822387BB089524B381E032
S113012090E002C0880F991F6A95E2F780958223B8
S113013084BB089521B381E090E002C0880F991F29
S11301406A95E2F78095822381BB08954130A1F539
S1130150813089F028F08230C9F0833011F108959C
S11301602BB381E090E002C0880F991F6A95E2F7F3
S1130170822B8BBB089528B381E090E002C0880FE6
S1130180991F6A95E2F7822B88BB089525B381E015
S113019090E002C0880F991F6A95E2F7822B85BB15
S11301A0089522B381E090E002C0880F991F6A95F8
S11301B0E2F7822B82BB0895411137C0813091F060
S11301C028F08230D9F0833029F108952BB381E0EF
S11301D090E002C0880F991F6A95E2F78095822308
S11301E08BBB089528B381E090E002C0880F991F6B
S11301F06A95E2F78095822388BB089525B381E050
S113020090E002C0880F991F6A95E2F780958223D7
S113021085BB089522B381E090E002C0880F991F46
S11302206A95E2F78095822382BB08950E945F015C
S11302300E9437010E9454012FE38DE093E0215086
S113024080409040E1F700C000000E9475018823BF
S1130250E1F3813629F481E690E00E945A0180E0BE
S1130260823699F782E690E00E945A01EECF40E090
S113027066E081E00E94360041E065E081E00E9492
S1130280360041E067E081E00E94360041E064E02E
S113029081E00E9436008DB183658DB941E064E050
S11302A081E00E94A600089540E064E081E00E949D
S11302B0A60008958FB9779BFECF8FB1089541E0D2
S11302C061E083E00E94360040E060E083E00E9449
S11302D0360087E689B98AB180618AB98AB18860B3
S11302E08AB980B5866880BD08955F9BFECF8CB1C6
S10902F00895F894FFCF0D
S9030000FC
